:0A0F2A0000010202030304040505A0
:10057F00E4F513F512F511F510C203C200C202C261
:10058F00011209417E0A7F008E368F37753E0A753C
:10059F003F1275340A75351C753C0A753D58754008
:1005AF000A75419490E680E030E70E853438853542
:1005BF0039853C3A853D3B800C853C38853D3985F6
:1005CF00343A85353BEE54E070030206E8751400AB
:1005DF007515807E0A7F008E168F17C374D69FFF06
:1005EF00740A9ECF2402CF3400FEE48F0F8E0EF5D7
:1005FF000DF50CF50BF50AF509F508AF0FAE0EADBD
:10060F000DAC0CAB0BAA0AA909A808C3120BAA5070
:10061F0026E515250BF582E514350AF58374CDF023
:10062F00E50B2401F50BE4350AF50AE43509F50964
:10063F00E43508F50880C4E4F50BF50AF509F5086B
:10064F00AF0FAE0EAD0DAC0CAB0BAA0AA909A808E3
:10065F00C3120BAA5031AE0AAF0BE5172FF582E587
:10066F00163EF583E0FDE5152FF582E5143EF58383
:10067F00EDF0EF2401F50BE43EF50AE43509F50939
:10068F00E43508F50880B9851436851537740024CC
:10069F0080FF740A34FFFEC3E53F9FF53FE53E9EA2
:1006AF00F53EC3E5399FF539E5389EF538C3E53B8F
:1006BF009FF53BE53A9EF53AC3E5359FF535E534B1
:1006CF009EF534C3E53D9FF53DE53C9EF53CC3E506
:1006DF00419FF541E5409EF540D2E843D82090E692
:1006EF0068E04409F090E65CE0443DF0D2AF90E65C
:1006FF00827404F090E680E020E105D204120DF33D
:10070F0090E680E054F7F0538EF8C20330010512E3
:10071F000080C2013003291209FE5024C203120EB9
:10072F007A20001690E682E030E704E020E1EF90B7
:10073F00E682E030E604E020E0E4120E22120F44DD
:05074F0012075480C7F1
:1000800090E6B9E0700302015B14700302020424DD
:10009000FE700302029924FB7003020155147003E1
:1000A00002014F147003020143147003020149243A
:1000B000056003020305120F46400302031190E698
:1000C000BBE024FE602C14604724FD6016146031F0
:1000D00024067065E53690E6B3F0E53790E6B4F0B7
:1000E000020311E53E90E6B3F0E53F90E6B4F0027E
:1000F0000311E53890E6B3F0E53990E6B4F0020379
:1001000011E53A90E6B3F0E53B90E6B4F002031156
:1001100090E6BAE0FF120E4EAA06A9077B01EA4953
:10012000600DEE90E6B3F0EF90E6B4F002031190AC
:10013000E6A0E04401F002031190E6A0E04401F0E3
:10014000020311120F0D020311120F3C02031112D0
:100150000F34020311120EFB020311120F48400369
:1001600002031190E6B8E0247F602B14603C240267
:1001700060030201FAA200E433FF25E0FFA202E4DB
:10018000334F90E740F0E4A3F090E68AF090E68BDE
:100190007402F0020311E490E740F0A3F090E68AC5
:1001A000F090E68B7402F002031190E6BCE0547EFE
:1001B000FF7E00E0D3948040067C007D0180047CBB
:1001C000007D00EC4EFEED4F242AF582740F3EF5C3
:1001D00083E493FF3395E0FEEF24A1FFEE34E68F36
:1001E00082F583E0540190E740F0E4A3F090E68AC2
:1001F000F090E68B7402F002031190E6A0E0440157
:10020000F0020311120F4A400302031190E6B8E016
:1002100024FE601D2402600302031190E6BAE0B4DC
:100220000105C20002031190E6A0E04401F00203C0
:100230001190E6BAE0705990E6BCE0547EFF7E0073
:10024000E0D3948040067C007D0180047C007D002A
:10025000EC4EFEED4F242AF582740F3EF583E493B5
:10026000FF3395E0FEEF24A1FFEE34E68F82F583A5
:10027000E054FEF090E6BCE05480FF131313541FCB
:10028000FFE0540F2F90E683F0E04420F0020311CA
:1002900090E6A0E04401F08078120F4C507390E695
:1002A000B8E024FE60202402706790E6BAE0B40152
:1002B00004D200805C90E6BAE06402605490E6A04C
:1002C000E04401F0804B90E6BCE0547EFF7E00E00D
:1002D000D3948040067C007D0180047C007D00EC8E
:1002E0004EFEED4F242AF582740F3EF583E493FF12
:1002F0003395E0FEEF24A1FFEE34E68F82F583E034
:100300004401F0800C120F4E500790E6A0E044012B
:08031000F090E6A0E04480F04B
:0103180022C2
:03003300020BFCC1
:040BFC0053D8EF32A9
:10086300012300012400012C00022D0000023200AC
:1008730006012501013001012F02042600000000BA
:07088300022A000001210020
:0B0F1F00E5BB30E7FB90E6F1EFF022AD
:100BE200E5BB30E7FB90E6F1E0F521E5BB30E7FB42
:090BF20090E6F2E08F828E83F0A0
:010BFB0022D7
:1009410090E600E054E74410F0000000E054FDF0B0
:1009510000000000000090E61074A0F0000000907C
:10096100E611F000000090E65EE04408F0000000AF
:1009710090E65F7408F0000000E490E68DF000005E
:100981000000000090E61274A2F000000090E6134F
:1009910074A0F000000090E61474E2F000000090F2
:1009A100E61574E0F0000000E490E619F0000000A4
:1009B10090E61BF000000000000090E618F0000037
:1009C1000090E61AF000000000000090E6917480AB
:1009D100F0000000F0000000F0000000F000000056
:1009E10090E695F0000000F043AF01120AD8D20062
:0D09F10075B2FF75800275B5FFE4F5B02208
:10075400E4FDFCF518F519F51AF51BF51CE5AA20BE
:10076400E263E5BB30E75E90E694E0FE90E695E058
:100774007A002400F519EA3EF5187EF47F007B0028
:100784007AF4E5306005E52FF45280E4FCFDC3ED16
:100794009519EC951850158B828A83E0FF120F1F70
:1007A4000BBB00010A0DBD00010C80E290E69574BC
:1007B40080F0E52B452A60057524018008E530604A
:1007C40004E52F4280E52B452A604CE52460487EF1
:1007D400FC7F007B007AFCE4FCFDC3ED952BEC95DB
:1007E4002A5013AF03AE02120BE20BBB00010A0D39
:1007F400BD00010C80E4E52A90E69CF0000000E5D1
:100804002B90E69DF0000000E4F524F52AF52BE595
:10081400306004E52F4280E5256043052EE52E7007
:1008240002052DFFAE2DE4FCFD7BE87AFDF9F8C34B
:10083400120B947029E52C60055380FE80034380DD
:1008440001E52C6008E4F52CF52DF52E22E5331591
:0E0854003370021532752C01752DC3752E50B0
:010862002273
:0209FE00D32202
:020F4400D322B6
:020F4600D322B4
:080F340090E6BAE0F531D3228A
:100EFB0090E740E531F0E490E68AF090E68B04F061
:020F0B00D322EF
:080F3C0090E6BAE0F522D32291
:100F0D0090E740E522F0E490E68AF090E68B04F05D
:020F1D00D322DD
:020F4800D322B2
:020F4A00D322B0
:020F4C00D322AE
:020F4E00D322AC
:100E9F00C0E0C083C082D2015391EF90E65D740130
:080EAF00F0D082D083D0E032C4
:100ECF00C0E0C083C0825391EF90E65D7404F0D010
:060EDF0082D083D0E03256
:100EE500C0E0C083C0825391EF90E65D7402F0D0FC
:060EF50082D083D0E03240
:100D8500C0E0C083C08290E680E030E70E8534384D
:100D9500853539853C3A853D3B800C853C38853D1C
:100DA5003985343A85353B5391EF90E65D7410F003
:070DB500D082D083D0E032B0
:100EB700C0E0C083C082D2035391EF90E65D74080F
:080EC700F0D082D083D0E032AC
:100DBC00C0E0C083C08290E680E030E70E85343816
:100DCC00853539853C3A853D3B800C853C38853DE5
:100DDC003985343A85353B5391EF90E65D7420F0BC
:070DEC00D082D083D0E03279
:010F5000326E
:010F5100326D
:010F5200326C
:010F5300326B
:010F5400326A
:10031900C0E0C083C082C0D075D000C000C001C099
:0B03290002C003C004C005C006C007EE
:1003340090E780E0FFB41200400302054C900348AC
:10034400F828287302037E02038E0203A20203B17B
:100354000203BA0203C30203DC0203ED02055802DE
:1003640004010204100204380204240204470204B3
:10037400BD02050202053A02052890E7C07401F0A7
:10038400A304F090E68FF002055890E781E0F58031
:10039400E090E7C0F090E68F7401F002055890E712
:1003A400C0E580F090E68F7401F002055890E78173
:1003B400E0F52302055890E781E0F5240205589002
:1003C400E781E090E6C2F090E781E090E7C0F0902A
:1003D400E68F7401F002055890E6C2E090E7C0F0A1
:1003E40090E68F7401F002055890E781E0FEA3E0E7
:1003F4007C002400F52BEC3EF52A02055890E7C05A
:10040400E590F090E68F7401F002055890E781E0E2
:10041400F590E090E7C0F090E68F7401F002055883
:1004240090E781E0F5B0E090E7C0F090E68F7401CA
:10043400F002055890E7C0E5B0F090E68F7401F043
:1004440002055890E782E0FFE4FCFDFE7810120BF1
:10045400CFC004C005C006C00790E781E0FFE4FCFC
:10046400FDFE7818120BCFD003D002D001D000EFDC
:100474004BFFEE4AFEED49FDEC48FCC004C005C04C
:1004840006C00790E783E0FFE4FCFDFE7808120B4A
:10049400CFD003D002D001D000EF4BFBEE4AFAEDEF
:1004A40049F9EC48F8A3E0FFE4EB4FF529EAF52815
:1004B400E9F527E8F526020558AF29AE28AD27ACA3
:1004C400267818120BBB90E7C0EFF0AF29AE28AD29
:1004D40027AC267810120BBBEFE4A3EFF0AF29AEE4
:1004E40028AD27AC267808120BBBEFE4A3EFF0E5A8
:1004F40029FFE4A3EFF090E68F7404F0805690E7B0
:1005040081E0C39402500FE0F52590E7C07401F038
:1005140090E68FF0803E90E7C0E525F090E68F747A
:1005240001F0803090E781E0F52F90E7C07401F08E
:1005340090E68FF0801E90E781E0F53090E7C0747C
:1005440001F090E68FF0800C90E7C074FFF090E625
:100554008F7401F090E68DE4F05391EF90E65F74B0
:0205640008F09D
:10056600D007D006D005D004D003D002D001D000E9
:09057600D0D0D082D083D0E03255
:010F55003269
:010F56003268
:010F57003267
:010F58003266
:010F59003265
:010F5A003264
:010F5B003263
:010F5C003262
:010F5D003261
:010F5E003260
:010F5F00325F
:010F6000325E
:010F6100325D
:010F6200325C
:010F6300325B
:010F6400325A
:010F65003259
:010F66003258
:010F67003257
:010F68003256
:010F69003255
:010F6A003254
:010F6B003253
:010F6C003252
:010F6D003251
:010F6E003250
:010F6F00324F
:010F7000324E
:010F7100324D
:010F7200324C
:100A00001201000200000040560407EE000001023F
:100A100000010A06000200000040010009023C003B
:100A2000010100A0320904000006FF0000000705D4
:100A3000010240000A0705810240000A0705020280
:100A400000020007050402000200070586020002FA
:100A5000000705880200020009023C00010100A015
:100A6000320904000006FF000000070501024000F3
:100A70000A0705810240000A07050202400000073C
:100A800005040240000007058602400000070588B3
:100A90000240000004030904080341004400490027
:100AA00036034100440039003900350038002F007A
:100AB0003500390020004500760061006C007500AB
:100AC0006100740069006F006E00200042006F003A
:080AD0006100720064000000E7
:100E220090E682E030E004E020E60B90E682E030DB
:100E3200E119E030E71590E680E04401F07F147E8E
:0C0E420000120D4490E680E054FEF02207
:100E7A0090E682E044C0F090E681F04387010000EA
:040E8A000000002242
:100DF30030040990E680E0440AF0800790E680E042
:100E03004408F07FDC7E05120D4490E65D74FFF02C
:0F0E130090E65FF05391EF90E680E054F7F02205
:020E4E00A907F2
:100E5000AE40AF418F828E83A3E064037017AD0173
:100E600019ED7001228F828E83E07C002FFDEC3E15
:090E7000FEAF0580DF7E007F006B
:010E79002256
:100D44008E188F1990E600E05418700DE518C3133F
:100D5400F518E51913F519801590E600E05418FF0D
:100D6400BF100BE51925E0F519E51833F518E51959
:100D74001519AE18700215184E6005120E8E80EE0D
:010D8400224C
:100E8E007400F58690FDA57C05A3E582458370F977
:010E9E002231
:03004300020C00AC
:03005300020C009C
:100C0000020E9F00020EE500020ECF00020EB7009A
:100C1000020D8500020DBC00020F5000020F5100B2
:100C2000020F5200020F5300020F5400020319007A
:100C3000020F5500020F5600020F5700020F580016
:100C4000020F5900020F5100020F5A00020F5B0001
:100C5000020F5C00020F5D00020F5E00020F5F00DA
:100C6000020F6000020F5100020F5100020F5100ED
:100C7000020F6100020F6200020F6300020F6400A6
:100C8000020F6500020F6600020F6700020F680086
:100C9000020F6900020F6A00020F6B00020F6C0066
:100CA000020F6D00020F6E00020F6F00020F700046
:080CB000020F7100020F720037
:10088A006080180032013F010101010700020100E6
:10089A000000000000000101010101010000360012
:1008AA000000003F3232013F01010107020200014C
:1008BA000000000001000101010101010000003FE8
:1008CA000000003F0101013B010101070000000394
:1008DA000202020007050101010101010000002DC9
:1008EA000000003F01013801010101070202010075
:1008FA0000000000000101010101010100002D00BA
:10090A000000003F6024188700000000000000007B
:10091A000000000000000000000083360107000309
:10092A00030200000000000000000000471880E0F9
:06093A00000001DE4E008A
:100AD80090E60174DEF090E6F574FFF0901880E07F
:100AE80090E6F3F0901881E090E6C3F0901882E069
:100AF80090E6C1F0901883E090E6C2F0901885E087
:100B080090E6C0F0901886E090E6F4F075AF0774B0
:100B180018F59A7400F59B759DE4E4F59EFF90E640
:100B28007BE090E67CF00FBF80F490E67174FFF0F4
:100B3800F5B490E672E04480F043B680000000E42B
:100B480090E6C4F000000090E6C5F0901887E090A9
:100B5800E6C6F0901888E090E6C7F0901889E09013
:100B6800E6C8F090188AE090E6C9F090188BE090FB
:100B7800E6CAF090188CE090E6CBF090188DE090E3
:0B0B8800E6CCF090188EE090E6CDF077
:010B9300223F
:03000000020CB837
:0C0CB800787FE4F6D8FD758141020CFF46
:100B9400EB9FF5F0EA9E42F0E99D42F0EC6480C8D8
:060BA40064809845F02278
:100BAA00EB9FF5F0EA9E42F0E99D42F0E89C45F0A1
:010BBA002218
:100BBB00E86010ECA2E713FCED13FDEE13FEEF1350
:040BCB00FFD8F0223D
:100BCF00E8600FEFC333FFEE33FEED33FDEC33FC84
:030BDF00D8F12228
:100CC40002057FE493A3F8E493A34003F68001F2C2
:100CD40008DFF48029E493A3F85407240CC8C33331
:100CE400C4540F4420C8834004F456800146F6DF00
:100CF400E4800B0102040810204080900863E47E25
:100D0400019360BCA3FF543F30E509541FFEE493F4
:100D1400A360010ECF54C025E060A840B8E493A3BB
:100D2400FAE493A3F8E493A3C8C582C8CAC583CAE6
:100D3400F0A3C8C582C8CAC583CADFE9DEE780BE9E
:0109400000B6
:00000001FF
